{
  "address": "0x5FbDB2315678afecb367f032d93F642f64180aa3",
  "abi": [
    {
      "anonymous": false,
      "inputs": [
        {
          "indexed": true,
          "internalType": "bytes32",
          "name": "txID",
          "type": "bytes32"
        },
        {
          "indexed": true,
          "internalType": "address",
          "name": "sender",
          "type": "address"
        },
        {
          "indexed": true,
          "internalType": "address",
          "name": "receiver",
          "type": "address"
        },
        {
          "indexed": false,
          "internalType": "uint256",
          "name": "amount",
          "type": "uint256"
        },
        {
          "indexed": false,
          "internalType": "bytes32",
          "name": "hashlock",
          "type": "bytes32"
        },
        {
          "indexed": false,
          "internalType": "uint256",
          "name": "timelock",
          "type": "uint256"
        }
      ],
      "name": "NewTransaction",
      "type": "event"
    },
    {
      "anonymous": false,
      "inputs": [
        {
          "indexed": true,
          "internalType": "bytes32",
          "name": "txID",
          "type": "bytes32"
        }
      ],
      "name": "Refund",
      "type": "event"
    },
    {
      "anonymous": false,
      "inputs": [
        {
          "indexed": true,
          "internalType": "bytes32",
          "name": "txID",
          "type": "bytes32"
        }
      ],
      "name": "Withdraw",
      "type": "event"
    },
    {
      "inputs": [],
      "name": "getLastTxId",
      "outputs": [
        {
          "internalType": "bytes32",
          "name": "",
          "type": "bytes32"
        }
      ],
      "stateMutability": "view",
      "type": "function"
    },
    {
      "inputs": [
        {
          "internalType": "bytes32",
          "name": "_txID",
          "type": "bytes32"
        }
      ],
      "name": "getTransaction",
      "outputs": [
        {
          "internalType": "address",
          "name": "sender",
          "type": "address"
        },
        {
          "internalType": "address",
          "name": "receiver",
          "type": "address"
        },
        {
          "internalType": "uint256",
          "name": "amount",
          "type": "uint256"
        },
        {
          "internalType": "bytes32",
          "name": "hashlock",
          "type": "bytes32"
        },
        {
          "internalType": "uint256",
          "name": "timelock",
          "type": "uint256"
        },
        {
          "internalType": "bool",
          "name": "withdrawn",
          "type": "bool"
        },
        {
          "internalType": "bool",
          "name": "refunded",
          "type": "bool"
        },
        {
          "internalType": "bytes32",
          "name": "preimage",
          "type": "bytes32"
        }
      ],
      "stateMutability": "view",
      "type": "function"
    },
    {
      "inputs": [
        {
          "internalType": "address payable",
          "name": "_receiver",
          "type": "address"
        },
        {
          "internalType": "bytes32",
          "name": "_hashlock",
          "type": "bytes32"
        },
        {
          "internalType": "uint32",
          "name": "_timelock",
          "type": "uint32"
        }
      ],
      "name": "newTransactionByHashLock",
      "outputs": [
        {
          "internalType": "bytes32",
          "name": "txID",
          "type": "bytes32"
        }
      ],
      "stateMutability": "payable",
      "type": "function"
    },
    {
      "inputs": [
        {
          "internalType": "bytes32",
          "name": "_txID",
          "type": "bytes32"
        }
      ],
      "name": "refund",
      "outputs": [
        {
          "internalType": "bool",
          "name": "",
          "type": "bool"
        }
      ],
      "stateMutability": "nonpayable",
      "type": "function"
    },
    {
      "inputs": [
        {
          "internalType": "bytes32",
          "name": "_txID",
          "type": "bytes32"
        },
        {
          "internalType": "bytes32",
          "name": "_preimage",
          "type": "bytes32"
        }
      ],
      "name": "withdraw",
      "outputs": [
        {
          "internalType": "bool",
          "name": "",
          "type": "bool"
        }
      ],
      "stateMutability": "nonpayable",
      "type": "function"
    }
  ],
  "transactionHash": "0xd24d75e740a3cc04e91835da4dd4d9e48a943726cc6073ad0673bd4c743c019b",
  "args": [],
  "numDeployments": 1,
  "solcInputHash": "3479b450f5cc0372ca88b78760f44f37",
  "bytecode": "0x608060405234801561001057600080fd5b506118cf806100206000396000f3fe60806040526004361061004a5760003560e01c80634aae13ca1461004f57806363615149146100935780637249fbb6146100d05780639691956b1461010d578063f02259581461013d575b600080fd5b34801561005b57600080fd5b5061007660048036038101906100719190610e44565b610168565b60405161008a989796959493929190610ef5565b60405180910390f35b34801561009f57600080fd5b506100ba60048036038101906100b59190610f73565b610283565b6040516100c79190610fb3565b60405180910390f35b3480156100dc57600080fd5b506100f760048036038101906100f29190610e44565b6105f6565b6040516101049190610fb3565b60405180910390f35b61012760048036038101906101229190611048565b610900565b604051610134919061109b565b60405180910390f35b34801561014957600080fd5b50610152610a07565b60405161015f919061109b565b60405180910390f35b600080600080600080600080600015156101818a610ac8565b1515036101b5576000806000806000806000808460001b94508060001b905097509750975097509750975097509750610278565b60008060008b815260200190815260200160002090508060000160009054906101000a900473ffffffffffffffffffffffffffffffffffffffff168160010160009054906101000a900473ffffffffffffffffffffffffffffffffffffffff16826002015483600301548460050160009054906101000a900463ffffffff168560050160049054906101000a900460ff168660050160059054906101000a900460ff1687600401548363ffffffff16935098509850985098509850985098509850505b919395975091939597565b60008261028f81610ac8565b6102ce576040517f08c379a00000000000000000000000000000000000000000000000000000000081526004016102c590611113565b60405180910390fd5b83836002816040516020016102e39190611154565b6040516020818303038152906040526040516102ff91906111e0565b602060405180830381855afa15801561031c573d6000803e3d6000fd5b5050506040513d601f19601f8201168201806040525081019061033f919061120c565b6000808481526020019081526020016000206003015414610395576040517f08c379a000000000000000000000000000000000000000000000000000000000815260040161038c90611285565b60405180910390fd5b853373ffffffffffffffffffffffffffffffffffffffff1660008083815260200190815260200160002060010160009054906101000a900473ffffffffffffffffffffffffffffffffffffffff1673ffffffffffffffffffffffffffffffffffffffff1614610439576040517f08c379a0000000000000000000000000000000000000000000000000000000008152600401610430906112f1565b60405180910390fd5b6000151560008083815260200190815260200160002060050160049054906101000a900460ff161515146104a2576040517f08c379a00000000000000000000000000000000000000000000000000000000081526004016104999061135d565b60405180910390fd5b4260008083815260200190815260200160002060050160009054906101000a900463ffffffff1663ffffffff161161050f576040517f08c379a0000000000000000000000000000000000000000000000000000000008152600401610506906113c9565b60405180910390fd5b6000806000898152602001908152602001600020905086816004018190555060018160050160046101000a81548160ff0219169083151502179055508060010160009054906101000a900473ffffffffffffffffffffffffffffffffffffffff1673ffffffffffffffffffffffffffffffffffffffff166108fc82600201549081150290604051600060405180830381858888f193505050501580156105b9573d6000803e3d6000fd5b50877fb038367bf72c9197d4f513be6ec7694358739492ca08fef497aac5dce4805e8e60405160405180910390a260019550505050505092915050565b60008161060281610ac8565b610641576040517f08c379a000000000000000000000000000000000000000000000000000000000815260040161063890611113565b60405180910390fd5b823373ffffffffffffffffffffffffffffffffffffffff1660008083815260200190815260200160002060000160009054906101000a900473ffffffffffffffffffffffffffffffffffffffff1673ffffffffffffffffffffffffffffffffffffffff16146106e5576040517f08c379a00000000000000000000000000000000000000000000000000000000081526004016106dc90611435565b60405180910390fd5b6000151560008083815260200190815260200160002060050160059054906101000a900460ff1615151461074e576040517f08c379a0000000000000000000000000000000000000000000000000000000008152600401610745906114a1565b60405180910390fd5b6000151560008083815260200190815260200160002060050160049054906101000a900460ff161515146107b7576040517f08c379a00000000000000000000000000000000000000000000000000000000081526004016107ae9061135d565b60405180910390fd5b4260008083815260200190815260200160002060050160009054906101000a900463ffffffff1663ffffffff161115610825576040517f08c379a000000000000000000000000000000000000000000000000000000000815260040161081c9061150d565b60405180910390fd5b6000806000868152602001908152602001600020905060018160050160056101000a81548160ff0219169083151502179055508060000160009054906101000a900473ffffffffffffffffffffffffffffffffffffffff1673ffffffffffffffffffffffffffffffffffffffff166108fc82600201549081150290604051600060405180830381858888f193505050501580156108c6573d6000803e3d6000fd5b50847f3fbd469ec3a5ce074f975f76ce27e727ba21c99176917b97ae2e713695582a1260405160405180910390a260019350505050919050565b6000803411610944576040517f08c379a000000000000000000000000000000000000000000000000000000000815260040161093b9061159f565b60405180910390fd5b428263ffffffff161161098c576040517f08c379a00000000000000000000000000000000000000000000000000000000081526004016109839061160b565b60405180910390fd5b61099833858585610b36565b9050600160003373ffffffffffffffffffffffffffffffffffffffff1673ffffffffffffffffffffffffffffffffffffffff1681526020019081526020016000208190806001815401808255809150506001900390600052602060002001600090919091909150559392505050565b600080600160003373ffffffffffffffffffffffffffffffffffffffff1673ffffffffffffffffffffffffffffffffffffffff168152602001908152602001600020805480602002602001604051908101604052809291908181526020018280548015610a9357602002820191906000526020600020905b815481526020019060010190808311610a7f575b505050505090508060018251610aa9919061165a565b81518110610aba57610ab961168e565b5b602002602001015191505090565b60008073ffffffffffffffffffffffffffffffffffffffff1660008084815260200190815260200160002060000160009054906101000a900473ffffffffffffffffffffffffffffffffffffffff1673ffffffffffffffffffffffffffffffffffffffff1614159050919050565b600060028585348686604051602001610b5395949392919061175c565b604051602081830303815290604052604051610b6f91906111e0565b602060405180830381855afa158015610b8c573d6000803e3d6000fd5b5050506040513d601f19601f82011682018060405250810190610baf919061120c565b9050610bba81610ac8565b15610bfa576040517f08c379a0000000000000000000000000000000000000000000000000000000008152600401610bf190611807565b60405180910390fd5b6040518061010001604052808673ffffffffffffffffffffffffffffffffffffffff1681526020018573ffffffffffffffffffffffffffffffffffffffff1681526020013481526020018481526020016000801b81526020018363ffffffff1681526020016000151581526020016000151581525060008083815260200190815260200160002060008201518160000160006101000a81548173ffffffffffffffffffffffffffffffffffffffff021916908373ffffffffffffffffffffffffffffffffffffffff16021790555060208201518160010160006101000a81548173ffffffffffffffffffffffffffffffffffffffff021916908373ffffffffffffffffffffffffffffffffffffffff16021790555060408201518160020155606082015181600301556080820151816004015560a08201518160050160006101000a81548163ffffffff021916908363ffffffff16021790555060c08201518160050160046101000a81548160ff02191690831515021790555060e08201518160050160056101000a81548160ff0219169083151502179055509050508373ffffffffffffffffffffffffffffffffffffffff168573ffffffffffffffffffffffffffffffffffffffff16827fefcf6fa45f70e775b0d1d2dba2fd94d3cf90ce0f00c3bf1db543ed7b1cd53057348787604051610df993929190611862565b60405180910390a4949350505050565b600080fd5b6000819050919050565b610e2181610e0e565b8114610e2c57600080fd5b50565b600081359050610e3e81610e18565b92915050565b600060208284031215610e5a57610e59610e09565b5b6000610e6884828501610e2f565b91505092915050565b600073ffffffffffffffffffffffffffffffffffffffff82169050919050565b6000610e9c82610e71565b9050919050565b610eac81610e91565b82525050565b6000819050919050565b610ec581610eb2565b82525050565b610ed481610e0e565b82525050565b60008115159050919050565b610eef81610eda565b82525050565b600061010082019050610f0b600083018b610ea3565b610f18602083018a610ea3565b610f256040830189610ebc565b610f326060830188610ecb565b610f3f6080830187610ebc565b610f4c60a0830186610ee6565b610f5960c0830185610ee6565b610f6660e0830184610ecb565b9998505050505050505050565b60008060408385031215610f8a57610f89610e09565b5b6000610f9885828601610e2f565b9250506020610fa985828601610e2f565b9150509250929050565b6000602082019050610fc86000830184610ee6565b92915050565b6000610fd982610e71565b9050919050565b610fe981610fce565b8114610ff457600080fd5b50565b60008135905061100681610fe0565b92915050565b600063ffffffff82169050919050565b6110258161100c565b811461103057600080fd5b50565b6000813590506110428161101c565b92915050565b60008060006060848603121561106157611060610e09565b5b600061106f86828701610ff7565b935050602061108086828701610e2f565b925050604061109186828701611033565b9150509250925092565b60006020820190506110b06000830184610ecb565b92915050565b600082825260208201905092915050565b7f7478494420646f6573206e6f7420657869737400000000000000000000000000600082015250565b60006110fd6013836110b6565b9150611108826110c7565b602082019050919050565b6000602082019050818103600083015261112c816110f0565b9050919050565b6000819050919050565b61114e61114982610e0e565b611133565b82525050565b6000611160828461113d565b60208201915081905092915050565b600081519050919050565b600081905092915050565b60005b838110156111a3578082015181840152602081019050611188565b60008484015250505050565b60006111ba8261116f565b6111c4818561117a565b93506111d4818560208601611185565b80840191505092915050565b60006111ec82846111af565b915081905092915050565b60008151905061120681610e18565b92915050565b60006020828403121561122257611221610e09565b5b6000611230848285016111f7565b91505092915050565b7f686173686c6f636b206861736820646f6573206e6f74206d6174636800000000600082015250565b600061126f601c836110b6565b915061127a82611239565b602082019050919050565b6000602082019050818103600083015261129e81611262565b9050919050565b7f6f6e6c792072656365697665722063616e207769746864726177000000000000600082015250565b60006112db601a836110b6565b91506112e6826112a5565b602082019050919050565b6000602082019050818103600083015261130a816112ce565b9050919050565b7f747820697320616c72656164792077697468647261776e000000000000000000600082015250565b60006113476017836110b6565b915061135282611311565b602082019050919050565b600060208201905081810360008301526113768161133a565b9050919050565b7f74696d656c6f636b206973206578706972656400000000000000000000000000600082015250565b60006113b36013836110b6565b91506113be8261137d565b602082019050919050565b600060208201905081810360008301526113e2816113a6565b9050919050565b7f6f6e6c792073656e6465722063616e20726566756e6400000000000000000000600082015250565b600061141f6016836110b6565b915061142a826113e9565b602082019050919050565b6000602082019050818103600083015261144e81611412565b9050919050565b7f747820697320616c726561647920726566756e64656400000000000000000000600082015250565b600061148b6016836110b6565b915061149682611455565b602082019050919050565b600060208201905081810360008301526114ba8161147e565b9050919050565b7f74696d656c6f636b206e6f742070617373656420796574000000000000000000600082015250565b60006114f76017836110b6565b9150611502826114c1565b602082019050919050565b60006020820190508181036000830152611526816114ea565b9050919050565b7f7472616e7366657220616d6f756e74206d75737420626520677265617465722060008201527f7468616e20300000000000000000000000000000000000000000000000000000602082015250565b60006115896026836110b6565b91506115948261152d565b604082019050919050565b600060208201905081810360008301526115b88161157c565b9050919050565b7f74696d656c6f636b206d75737420626520696e20746865206675747572650000600082015250565b60006115f5601e836110b6565b9150611600826115bf565b602082019050919050565b60006020820190508181036000830152611624816115e8565b9050919050565b7f4e487b7100000000000000000000000000000000000000000000000000000000600052601160045260246000fd5b600061166582610eb2565b915061167083610eb2565b92508282039050818111156116885761168761162b565b5b92915050565b7f4e487b7100000000000000000000000000000000000000000000000000000000600052603260045260246000fd5b60008160601b9050919050565b60006116d5826116bd565b9050919050565b60006116e7826116ca565b9050919050565b6116ff6116fa82610e91565b6116dc565b82525050565b6000819050919050565b61172061171b82610eb2565b611705565b82525050565b60008160e01b9050919050565b600061173e82611726565b9050919050565b6117566117518261100c565b611733565b82525050565b600061176882886116ee565b60148201915061177882876116ee565b601482019150611788828661170f565b602082019150611798828561113d565b6020820191506117a88284611745565b6004820191508190509695505050505050565b7f7472616e73616374696f6e20616c726561647920657869737473000000000000600082015250565b60006117f1601a836110b6565b91506117fc826117bb565b602082019050919050565b60006020820190508181036000830152611820816117e4565b9050919050565b6000819050919050565b600061184c6118476118428461100c565b611827565b610eb2565b9050919050565b61185c81611831565b82525050565b60006060820190506118776000830186610ebc565b6118846020830185610ecb565b6118916040830184611853565b94935050505056fea264697066735822122028bc0d61bc7b4ae5c62dbe49b70b546ade1ca08b63e8f2f19f9e1c0e37498aed64736f6c63430008130033",
  "devdoc": {
    "kind": "dev",
    "methods": {
      "getTransaction(bytes32)": {
        "details": "Get transaction details by txID.",
        "params": {
          "_txID": "transaction ID"
        }
      },
      "newTransactionByHashLock(address,bytes32,uint32)": {
        "params": {
          "_hashlock": "hashlock",
          "_receiver": "Receiver of the ETH.",
          "_timelock": "UNIX epoch seconds time that the lock expires at. "
        },
        "returns": {
          "txID": "of the new hashed time lock transaction. This is needed for subsequent                    calls."
        }
      },
      "refund(bytes32)": {
        "params": {
          "_txID": "hashed lock transaction ID."
        },
        "returns": {
          "_0": "bool true on success"
        }
      },
      "withdraw(bytes32,bytes32)": {
        "params": {
          "_preimage": "sha256(_preimage) should equal the contract hashlock.",
          "_txID": "hashed lock transaction ID."
        },
        "returns": {
          "_0": "bool true on success"
        }
      }
    },
    "version": 1
  },
  "userdoc": {
    "kind": "user",
    "methods": {
      "newTransactionByHashLock(address,bytes32,uint32)": {
        "notice": "make a new hashed timelock transaction by _hashlock, used by not knowing the preImage "
      },
      "refund(bytes32)": {
        "notice": "when timelock has expired, sender can call this function to retrieve  their locked token."
      },
      "withdraw(bytes32,bytes32)": {
        "notice": "once know the preimage of the hashlock, receiver can call this function to extract the locked token"
      }
    },
    "notice": "This contract implements hashed timelock function for ETH swap on different EVM based chain;",
    "version": 1
  },
  "storageLayout": {
    "storage": [
      {
        "astId": 168,
        "contract": "contracts/HTLC.sol:HTLC",
        "label": "transactions",
        "offset": 0,
        "slot": "0",
        "type": "t_mapping(t_bytes32,t_struct(LockedTransaction)41_storage)"
      },
      {
        "astId": 173,
        "contract": "contracts/HTLC.sol:HTLC",
        "label": "txIds",
        "offset": 0,
        "slot": "1",
        "type": "t_mapping(t_address,t_array(t_bytes32)dyn_storage)"
      }
    ],
    "types": {
      "t_address": {
        "encoding": "inplace",
        "label": "address",
        "numberOfBytes": "20"
      },
      "t_address_payable": {
        "encoding": "inplace",
        "label": "address payable",
        "numberOfBytes": "20"
      },
      "t_array(t_bytes32)dyn_storage": {
        "base": "t_bytes32",
        "encoding": "dynamic_array",
        "label": "bytes32[]",
        "numberOfBytes": "32"
      },
      "t_bool": {
        "encoding": "inplace",
        "label": "bool",
        "numberOfBytes": "1"
      },
      "t_bytes32": {
        "encoding": "inplace",
        "label": "bytes32",
        "numberOfBytes": "32"
      },
      "t_mapping(t_address,t_array(t_bytes32)dyn_storage)": {
        "encoding": "mapping",
        "key": "t_address",
        "label": "mapping(address => bytes32[])",
        "numberOfBytes": "32",
        "value": "t_array(t_bytes32)dyn_storage"
      },
      "t_mapping(t_bytes32,t_struct(LockedTransaction)41_storage)": {
        "encoding": "mapping",
        "key": "t_bytes32",
        "label": "mapping(bytes32 => struct HTLC.LockedTransaction)",
        "numberOfBytes": "32",
        "value": "t_struct(LockedTransaction)41_storage"
      },
      "t_struct(LockedTransaction)41_storage": {
        "encoding": "inplace",
        "label": "struct HTLC.LockedTransaction",
        "members": [
          {
            "astId": 26,
            "contract": "contracts/HTLC.sol:HTLC",
            "label": "sender",
            "offset": 0,
            "slot": "0",
            "type": "t_address_payable"
          },
          {
            "astId": 28,
            "contract": "contracts/HTLC.sol:HTLC",
            "label": "receiver",
            "offset": 0,
            "slot": "1",
            "type": "t_address_payable"
          },
          {
            "astId": 30,
            "contract": "contracts/HTLC.sol:HTLC",
            "label": "amount",
            "offset": 0,
            "slot": "2",
            "type": "t_uint256"
          },
          {
            "astId": 32,
            "contract": "contracts/HTLC.sol:HTLC",
            "label": "hashlock",
            "offset": 0,
            "slot": "3",
            "type": "t_bytes32"
          },
          {
            "astId": 34,
            "contract": "contracts/HTLC.sol:HTLC",
            "label": "preimage",
            "offset": 0,
            "slot": "4",
            "type": "t_bytes32"
          },
          {
            "astId": 36,
            "contract": "contracts/HTLC.sol:HTLC",
            "label": "timelock",
            "offset": 0,
            "slot": "5",
            "type": "t_uint32"
          },
          {
            "astId": 38,
            "contract": "contracts/HTLC.sol:HTLC",
            "label": "withdrawn",
            "offset": 4,
            "slot": "5",
            "type": "t_bool"
          },
          {
            "astId": 40,
            "contract": "contracts/HTLC.sol:HTLC",
            "label": "refunded",
            "offset": 5,
            "slot": "5",
            "type": "t_bool"
          }
        ],
        "numberOfBytes": "192"
      },
      "t_uint256": {
        "encoding": "inplace",
        "label": "uint256",
        "numberOfBytes": "32"
      },
      "t_uint32": {
        "encoding": "inplace",
        "label": "uint32",
        "numberOfBytes": "4"
      }
    }
  }
}